:100000000C9434000C9490000C9490000C9490008C
:100010000C9490000C9490000C9490000C94900020
:100020000C9490000C9490000C9490000C94900010
:100030000C9490000C9490000C9490000C94900000
:100040000C9490000C9490000C9490000C949000F0
:100050000C9490000C9490000C9490000C949000E0
:100060000C9490000C94900011241FBECFEFD8E0A8
:10007000DEBFCDBF0E9440000C948500F894FFCFF6
:1000800084B1897F84B985B1866085B984B188637C
:1000900084B92D982C982B9820E030E080E090E0F7
:1000A00053E040E072E060E01A9B2CC0199B24C032
:1000B0008230910581F024F481309105A9F704C0C4
:1000C00083309105B1F0F0CF2D9A2C9A28E833E1D6
:1000D000872F962FE9CF21503109EFE9FFE03197C3
:1000E000F1F700C0000021153105F1F6852F942F9E
:1000F000DBCF2C982B9AD8CF85B1877C85B9852FFB
:0A010000942FD2CF199BF8CFDFCF68
:10010A00EC010E9495000E949400CE010E94960084
:06011A00CE010E949200DC
:040120000C9400003B
:040124000E943E00F7
:02012800089538
:02012A00089536
:02012C00089534
:00000001FF
