:100000000C9434000C949D000C949D000C949D0065
:100010000C949D000C949D000C949D000C949D00EC
:100020000C949D000C949D000C949D000C949D00DC
:100030000C949D000C949D000C949D000C949D00CC
:100040000C949D000C949D000C949D000C949D00BC
:100050000C949D000C949D000C949D000C949D00AC
:100060000C949D000C949D0011241FBECFEFD8E08E
:10007000DEBFCDBF0E9440000C949200F894FFCFE9
:1000800084B1897F84B985B1866085B984B188637C
:1000900084B92D982C982B9820E030E080E090E0F7
:1000A00075E060E052E040E0F3E0E0E01A9B37C02A
:1000B000199B2BC08330910529F13CF481309105C7
:1000C00059F08230910581F0F1CF84309105E9F04B
:1000D0008530910501F1EACF2D9A2C9A2B9828E8CA
:1000E00033E1852F942FE2CF21503109AFE9BFE0F2
:1000F0001197F1F700C0000021153105B9F68F2FD7
:100100009E2FD4CF2C982B9AD1CF2D982C982B980A
:10011000872F962FCBCF2D982C982B98C7CF199B34
:04012000F4CFDACF6F
:10012400EC010E94A2000E94A100CE010E94A30043
:06013400CE010E949F00B5
:04013A000C94000021
:04013E000E943E00DD
:0201420008951E
:0201440008951C
:0201460008951A
:00000001FF
